{
  "_format": "hh-sol-artifact-1",
  "contractName": "WorkSpace",
  "sourceName": "contracts/WorkSpace.sol",
  "abi": [
    {
      "anonymous": false,
      "inputs": [
        {
          "indexed": false,
          "internalType": "uint256",
          "name": "workspaceId",
          "type": "uint256"
        },
        {
          "indexed": false,
          "internalType": "address",
          "name": "participant",
          "type": "address"
        }
      ],
      "name": "ParticipantAdded",
      "type": "event"
    },
    {
      "anonymous": false,
      "inputs": [
        {
          "indexed": false,
          "internalType": "uint256",
          "name": "workspaceId",
          "type": "uint256"
        },
        {
          "indexed": false,
          "internalType": "string",
          "name": "videoId",
          "type": "string"
        }
      ],
      "name": "VideoAdded",
      "type": "event"
    },
    {
      "anonymous": false,
      "inputs": [
        {
          "indexed": false,
          "internalType": "uint256",
          "name": "workspaceId",
          "type": "uint256"
        },
        {
          "indexed": false,
          "internalType": "string",
          "name": "name",
          "type": "string"
        },
        {
          "indexed": false,
          "internalType": "address",
          "name": "creator",
          "type": "address"
        }
      ],
      "name": "WorkspaceCreated",
      "type": "event"
    },
    {
      "inputs": [
        {
          "internalType": "uint256",
          "name": "_workspaceId",
          "type": "uint256"
        },
        {
          "internalType": "address",
          "name": "_participant",
          "type": "address"
        }
      ],
      "name": "addParticipantToWorkspace",
      "outputs": [],
      "stateMutability": "nonpayable",
      "type": "function"
    },
    {
      "inputs": [
        {
          "internalType": "uint256",
          "name": "_workspaceId",
          "type": "uint256"
        },
        {
          "internalType": "string",
          "name": "_videoId",
          "type": "string"
        }
      ],
      "name": "addVideoToWorkspace",
      "outputs": [],
      "stateMutability": "nonpayable",
      "type": "function"
    },
    {
      "inputs": [
        {
          "internalType": "string",
          "name": "_name",
          "type": "string"
        },
        {
          "internalType": "address",
          "name": "_initialParticipant",
          "type": "address"
        },
        {
          "internalType": "string",
          "name": "_videoId",
          "type": "string"
        }
      ],
      "name": "createWorkspace",
      "outputs": [],
      "stateMutability": "nonpayable",
      "type": "function"
    },
    {
      "inputs": [
        {
          "internalType": "address",
          "name": "",
          "type": "address"
        }
      ],
      "name": "creators",
      "outputs": [
        {
          "internalType": "address",
          "name": "creatorAddress",
          "type": "address"
        }
      ],
      "stateMutability": "view",
      "type": "function"
    },
    {
      "inputs": [],
      "name": "getAllWorkspaces",
      "outputs": [
        {
          "internalType": "uint256[]",
          "name": "",
          "type": "uint256[]"
        }
      ],
      "stateMutability": "view",
      "type": "function"
    },
    {
      "inputs": [
        {
          "internalType": "address",
          "name": "_creator",
          "type": "address"
        }
      ],
      "name": "getCreatorWorkspaces",
      "outputs": [
        {
          "internalType": "uint256[]",
          "name": "",
          "type": "uint256[]"
        }
      ],
      "stateMutability": "view",
      "type": "function"
    },
    {
      "inputs": [
        {
          "internalType": "address",
          "name": "_participant",
          "type": "address"
        }
      ],
      "name": "getParticipantWorkspaces",
      "outputs": [
        {
          "internalType": "uint256[]",
          "name": "",
          "type": "uint256[]"
        }
      ],
      "stateMutability": "view",
      "type": "function"
    },
    {
      "inputs": [
        {
          "internalType": "uint256",
          "name": "_workspaceId",
          "type": "uint256"
        }
      ],
      "name": "getWorkspaceDetails",
      "outputs": [
        {
          "internalType": "string",
          "name": "name",
          "type": "string"
        },
        {
          "internalType": "address",
          "name": "workspace_creator",
          "type": "address"
        },
        {
          "internalType": "address[]",
          "name": "participants",
          "type": "address[]"
        },
        {
          "internalType": "string[]",
          "name": "videoIds",
          "type": "string[]"
        }
      ],
      "stateMutability": "view",
      "type": "function"
    },
    {
      "inputs": [
        {
          "internalType": "address",
          "name": "",
          "type": "address"
        },
        {
          "internalType": "uint256",
          "name": "",
          "type": "uint256"
        }
      ],
      "name": "participantWorkspaces",
      "outputs": [
        {
          "internalType": "uint256",
          "name": "",
          "type": "uint256"
        }
      ],
      "stateMutability": "view",
      "type": "function"
    },
    {
      "inputs": [],
      "name": "workspaceCount",
      "outputs": [
        {
          "internalType": "uint256",
          "name": "",
          "type": "uint256"
        }
      ],
      "stateMutability": "view",
      "type": "function"
    },
    {
      "inputs": [
        {
          "internalType": "uint256",
          "name": "",
          "type": "uint256"
        }
      ],
      "name": "workspaces",
      "outputs": [
        {
          "internalType": "string",
          "name": "name",
          "type": "string"
        },
        {
          "internalType": "address",
          "name": "workspace_creator",
          "type": "address"
        }
      ],
      "stateMutability": "view",
      "type": "function"
    }
  ],
  "bytecode": "0x608060405234801561001057600080fd5b506112b0806100206000396000f3fe608060405234801561001057600080fd5b50600436106100c95760003560e01c80638447dfa811610081578063dee617451161005b578063dee61745146101c3578063df14f310146101d6578063ee10bdc1146101e957600080fd5b80638447dfa81461015857806391f8e4ca1461016b578063933166e11461018257600080fd5b80633d465f1d116100b25780633d465f1d1461011b5780634dda92ec146101305780637e055b851461014557600080fd5b806334f58bc1146100ce5780633bc8d2fb146100f8575b600080fd5b6100e16100dc366004610d24565b6101fc565b6040516100ef929190610d83565b60405180910390f35b61010b610106366004610d24565b6102c1565b6040516100ef9493929190610dae565b610123610534565b6040516100ef9190610e6f565b61014361013e366004610ecf565b6105b8565b005b610143610153366004610f9e565b610759565b610123610166366004610fe5565b61089b565b61017460035481565b6040519081526020016100ef565b6101ab610190366004610fe5565b6001602052600090815260409020546001600160a01b031681565b6040516001600160a01b0390911681526020016100ef565b6101436101d1366004611007565b610907565b6101236101e4366004610fe5565b610b60565b6101746101f736600461107b565b610bcd565b6000818154811061020c57600080fd5b906000526020600020906004020160009150905080600001805461022f906110a5565b80601f016020809104026020016040519081016040528092919081815260200182805461025b906110a5565b80156102a85780601f1061027d576101008083540402835291602001916102a8565b820191906000526020600020905b81548152906001019060200180831161028b57829003601f168201915b505050600190930154919250506001600160a01b031682565b6060600060608060008054905085106103215760405162461bcd60e51b815260206004820152601860248201527f576f726b737061636520646f6573206e6f74206578697374000000000000000060448201526064015b60405180910390fd5b6000808681548110610335576103356110d9565b90600052602060002090600402019050806000018160010160009054906101000a90046001600160a01b03168260020183600301838054610375906110a5565b80601f01602080910402602001604051908101604052809291908181526020018280546103a1906110a5565b80156103ee5780601f106103c3576101008083540402835291602001916103ee565b820191906000526020600020905b8154815290600101906020018083116103d157829003601f168201915b505050505093508180548060200260200160405190810160405280929190818152602001828054801561044a57602002820191906000526020600020905b81546001600160a01b0316815260019091019060200180831161042c575b5050505050915080805480602002602001604051908101604052809291908181526020016000905b8282101561051e578382906000526020600020018054610491906110a5565b80601f01602080910402602001604051908101604052809291908181526020018280546104bd906110a5565b801561050a5780601f106104df5761010080835404028352916020019161050a565b820191906000526020600020905b8154815290600101906020018083116104ed57829003601f168201915b505050505081526020019060010190610472565b5050505090509450945094509450509193509193565b6060600060035467ffffffffffffffff81111561055357610553610efb565b60405190808252806020026020018201604052801561057c578160200160208202803683370190505b50905060005b6003548110156105b2578082828151811061059f5761059f6110d9565b6020908102919091010152600101610582565b50919050565b60005482106106095760405162461bcd60e51b815260206004820152601860248201527f576f726b737061636520646f6573206e6f7420657869737400000000000000006044820152606401610318565b6000828154811061061c5761061c6110d9565b60009182526020909120600490910201600101546001600160a01b031633146106ad5760405162461bcd60e51b815260206004820152602160248201527f4f6e6c792063726561746f722063616e20616464207061727469636970616e7460448201527f73000000000000000000000000000000000000000000000000000000000000006064820152608401610318565b600082815481106106c0576106c06110d9565b6000918252602080832060049290920290910160029081018054600180820183559185528385200180546001600160a01b0319166001600160a01b038716908117909155808552918352604080852080549283018155855293839020018590558251858152918201527f12246ba2398106df92bc0281a1eece14e5b8516c5c3dab76205391650e39fddb91015b60405180910390a15050565b60005482106107aa5760405162461bcd60e51b815260206004820152601860248201527f576f726b737061636520646f6573206e6f7420657869737400000000000000006044820152606401610318565b600082815481106107bd576107bd6110d9565b60009182526020909120600490910201600101546001600160a01b031633146108285760405162461bcd60e51b815260206004820152601b60248201527f4f6e6c792063726561746f722063616e2061646420766964656f7300000000006044820152606401610318565b6000828154811061083b5761083b6110d9565b6000918252602080832060036004909302019190910180546001810182559083529120016108698282611140565b507f9778aed84dd1eb99c14d99b075b40f66d9fa67975df07b3eafd9d49a1f2d0757828260405161074d929190611200565b6001600160a01b0381166000908152600260209081526040918290208054835181840281018401909452808452606093928301828280156108fb57602002820191906000526020600020905b8154815260200190600101908083116108e7575b50505050509050919050565b600354604080516080810182528581523360208083019190915282516000808252818301855283850191909152835181815291820190935260608201908361095f565b606081526020019060019003908161094a5790505b50905281546001810183556000928352602090922081519192600402019081906109899082611140565b506020828101516001830180546001600160a01b0319166001600160a01b03909216919091179055604083015180516109c89260028501920190610bfe565b50606082015180516109e4916003840191602090910190610c63565b505050600081815481106109fa576109fa6110d9565b60009182526020808320600260049093020182018054600181810183559185528285200180546001600160a01b0389166001600160a01b03199091168117909155845291815260408320805492830181558352822001829055805482908110610a6557610a656110d9565b600091825260208083206003600490930201919091018054600181018255908352912001610a938382611140565b50336000818152600160208181526040832080546001600160a01b03191690941784559281018054918201815582529181209091018290556003805491610ad983611221565b91905055507ff31b3a159c9fe995f2a7a1728a7632c5e61cff3b4bc9733e40f23d3def3d8fb2818533604051610b1193929190611248565b60405180910390a1604080518281526001600160a01b03851660208201527f12246ba2398106df92bc0281a1eece14e5b8516c5c3dab76205391650e39fddb910160405180910390a150505050565b6001600160a01b0381166000908152600160208181526040928390209091018054835181840281018401909452808452606093928301828280156108fb57602002820191906000526020600020908154815260200190600101908083116108e75750505050509050919050565b60026020528160005260406000208181548110610be957600080fd5b90600052602060002001600091509150505481565b828054828255906000526020600020908101928215610c53579160200282015b82811115610c5357825182546001600160a01b0319166001600160a01b03909116178255602090920191600190910190610c1e565b50610c5f929150610cb5565b5090565b828054828255906000526020600020908101928215610ca9579160200282015b82811115610ca95782518290610c999082611140565b5091602001919060010190610c83565b50610c5f929150610cca565b5b80821115610c5f5760008155600101610cb6565b80821115610c5f576000610cde8282610ce7565b50600101610cca565b508054610cf3906110a5565b6000825580601f10610d03575050565b601f016020900490600052602060002090810190610d219190610cb5565b50565b600060208284031215610d3657600080fd5b5035919050565b6000815180845260005b81811015610d6357602081850181015186830182015201610d47565b506000602082860101526020601f19601f83011685010191505092915050565b604081526000610d966040830185610d3d565b90506001600160a01b03831660208301529392505050565b608081526000610dc16080830187610d3d565b60206001600160a01b038088168286015284830360408601528287518085528385019150838901945060005b81811015610e0b578551841683529484019491840191600101610ded565b50508581036060870152865180825283820194509150600582901b8101830183880160005b84811015610e5e57601f19848403018752610e4c838351610d3d565b96860196925090850190600101610e30565b50909b9a5050505050505050505050565b6020808252825182820181905260009190848201906040850190845b81811015610ea757835183529284019291840191600101610e8b565b50909695505050505050565b80356001600160a01b0381168114610eca57600080fd5b919050565b60008060408385031215610ee257600080fd5b82359150610ef260208401610eb3565b90509250929050565b634e487b7160e01b600052604160045260246000fd5b600082601f830112610f2257600080fd5b813567ffffffffffffffff80821115610f3d57610f3d610efb565b604051601f8301601f19908116603f01168101908282118183101715610f6557610f65610efb565b81604052838152866020858801011115610f7e57600080fd5b836020870160208301376000602085830101528094505050505092915050565b60008060408385031215610fb157600080fd5b82359150602083013567ffffffffffffffff811115610fcf57600080fd5b610fdb85828601610f11565b9150509250929050565b600060208284031215610ff757600080fd5b61100082610eb3565b9392505050565b60008060006060848603121561101c57600080fd5b833567ffffffffffffffff8082111561103457600080fd5b61104087838801610f11565b945061104e60208701610eb3565b9350604086013591508082111561106457600080fd5b5061107186828701610f11565b9150509250925092565b6000806040838503121561108e57600080fd5b61109783610eb3565b946020939093013593505050565b600181811c908216806110b957607f821691505b6020821081036105b257634e487b7160e01b600052602260045260246000fd5b634e487b7160e01b600052603260045260246000fd5b601f82111561113b576000816000526020600020601f850160051c810160208610156111185750805b601f850160051c820191505b8181101561113757828155600101611124565b5050505b505050565b815167ffffffffffffffff81111561115a5761115a610efb565b61116e8161116884546110a5565b846110ef565b602080601f8311600181146111a3576000841561118b5750858301515b600019600386901b1c1916600185901b178555611137565b600085815260208120601f198616915b828110156111d2578886015182559484019460019091019084016111b3565b50858210156111f05787850151600019600388901b60f8161c191681555b5050505050600190811b01905550565b8281526040602082015260006112196040830184610d3d565b949350505050565b60006001820161124157634e487b7160e01b600052601160045260246000fd5b5060010190565b8381526060602082015260006112616060830185610d3d565b90506001600160a01b038316604083015294935050505056fea2646970667358221220ac3695486d15f1ec2b628ba6a7da3a7960748a5165023a85d5baa5d89d5a0a1064736f6c63430008180033",
  "linkReferences": {},
  "deployedLinkReferences": {}
}