{
  "_format": "hh-sol-artifact-1",
  "contractName": "WorkSpace",
  "sourceName": "contracts/WorkSpace.sol",
  "abi": [
    {
      "anonymous": false,
      "inputs": [
        {
          "indexed": false,
          "internalType": "uint256",
          "name": "workspaceId",
          "type": "uint256"
        },
        {
          "indexed": false,
          "internalType": "address",
          "name": "participant",
          "type": "address"
        }
      ],
      "name": "ParticipantAdded",
      "type": "event"
    },
    {
      "anonymous": false,
      "inputs": [
        {
          "indexed": false,
          "internalType": "uint256",
          "name": "workspaceId",
          "type": "uint256"
        },
        {
          "indexed": false,
          "internalType": "string",
          "name": "videoId",
          "type": "string"
        }
      ],
      "name": "VideoAdded",
      "type": "event"
    },
    {
      "anonymous": false,
      "inputs": [
        {
          "indexed": false,
          "internalType": "uint256",
          "name": "workspaceId",
          "type": "uint256"
        },
        {
          "indexed": false,
          "internalType": "string",
          "name": "name",
          "type": "string"
        },
        {
          "indexed": false,
          "internalType": "address",
          "name": "creator",
          "type": "address"
        }
      ],
      "name": "WorkspaceCreated",
      "type": "event"
    },
    {
      "inputs": [
        {
          "internalType": "uint256",
          "name": "_workspaceId",
          "type": "uint256"
        },
        {
          "internalType": "address",
          "name": "_participant",
          "type": "address"
        }
      ],
      "name": "addParticipantToWorkspace",
      "outputs": [],
      "stateMutability": "nonpayable",
      "type": "function"
    },
    {
      "inputs": [
        {
          "internalType": "uint256",
          "name": "_workspaceId",
          "type": "uint256"
        },
        {
          "internalType": "string",
          "name": "_videoId",
          "type": "string"
        }
      ],
      "name": "addVideoToWorkspace",
      "outputs": [],
      "stateMutability": "nonpayable",
      "type": "function"
    },
    {
      "inputs": [
        {
          "internalType": "string",
          "name": "_name",
          "type": "string"
        },
        {
          "internalType": "address",
          "name": "_initialParticipant",
          "type": "address"
        }
      ],
      "name": "createWorkspace",
      "outputs": [],
      "stateMutability": "nonpayable",
      "type": "function"
    },
    {
      "inputs": [
        {
          "internalType": "address",
          "name": "",
          "type": "address"
        }
      ],
      "name": "creators",
      "outputs": [
        {
          "internalType": "address",
          "name": "creatorAddress",
          "type": "address"
        }
      ],
      "stateMutability": "view",
      "type": "function"
    },
    {
      "inputs": [],
      "name": "getAllWorkspaces",
      "outputs": [
        {
          "internalType": "uint256[]",
          "name": "",
          "type": "uint256[]"
        }
      ],
      "stateMutability": "view",
      "type": "function"
    },
    {
      "inputs": [
        {
          "internalType": "address",
          "name": "_creator",
          "type": "address"
        }
      ],
      "name": "getCreatorWorkspaces",
      "outputs": [
        {
          "internalType": "uint256[]",
          "name": "",
          "type": "uint256[]"
        }
      ],
      "stateMutability": "view",
      "type": "function"
    },
    {
      "inputs": [
        {
          "internalType": "address",
          "name": "_participant",
          "type": "address"
        }
      ],
      "name": "getParticipantWorkspaces",
      "outputs": [
        {
          "internalType": "uint256[]",
          "name": "",
          "type": "uint256[]"
        }
      ],
      "stateMutability": "view",
      "type": "function"
    },
    {
      "inputs": [
        {
          "internalType": "uint256",
          "name": "_workspaceId",
          "type": "uint256"
        }
      ],
      "name": "getWorkspaceDetails",
      "outputs": [
        {
          "internalType": "string",
          "name": "name",
          "type": "string"
        },
        {
          "internalType": "address",
          "name": "workspace_creator",
          "type": "address"
        },
        {
          "internalType": "address[]",
          "name": "participants",
          "type": "address[]"
        },
        {
          "internalType": "string[]",
          "name": "videoIds",
          "type": "string[]"
        }
      ],
      "stateMutability": "view",
      "type": "function"
    },
    {
      "inputs": [
        {
          "internalType": "address",
          "name": "",
          "type": "address"
        },
        {
          "internalType": "uint256",
          "name": "",
          "type": "uint256"
        }
      ],
      "name": "participantWorkspaces",
      "outputs": [
        {
          "internalType": "uint256",
          "name": "",
          "type": "uint256"
        }
      ],
      "stateMutability": "view",
      "type": "function"
    },
    {
      "inputs": [],
      "name": "workspaceCount",
      "outputs": [
        {
          "internalType": "uint256",
          "name": "",
          "type": "uint256"
        }
      ],
      "stateMutability": "view",
      "type": "function"
    },
    {
      "inputs": [
        {
          "internalType": "uint256",
          "name": "",
          "type": "uint256"
        }
      ],
      "name": "workspaces",
      "outputs": [
        {
          "internalType": "string",
          "name": "name",
          "type": "string"
        },
        {
          "internalType": "address",
          "name": "workspace_creator",
          "type": "address"
        }
      ],
      "stateMutability": "view",
      "type": "function"
    }
  ],
  "bytecode": "0x608060405234801561001057600080fd5b50611264806100206000396000f3fe608060405234801561001057600080fd5b50600436106100c95760003560e01c80638447dfa811610081578063aa82deca1161005b578063aa82deca146101c3578063df14f310146101d6578063ee10bdc1146101e957600080fd5b80638447dfa81461015857806391f8e4ca1461016b578063933166e11461018257600080fd5b80633d465f1d116100b25780633d465f1d1461011b5780634dda92ec146101305780637e055b851461014557600080fd5b806334f58bc1146100ce5780633bc8d2fb146100f8575b600080fd5b6100e16100dc366004610d07565b6101fc565b6040516100ef929190610d66565b60405180910390f35b61010b610106366004610d07565b6102c1565b6040516100ef9493929190610d91565b610123610534565b6040516100ef9190610e52565b61014361013e366004610eb2565b6105b8565b005b610143610153366004610f81565b610766565b610123610166366004610fc8565b6108a8565b61017460035481565b6040519081526020016100ef565b6101ab610190366004610fc8565b6001602052600090815260409020546001600160a01b031681565b6040516001600160a01b0390911681526020016100ef565b6101436101d1366004610fea565b610914565b6101236101e4366004610fc8565b610b36565b6101746101f736600461102f565b610ba3565b6000818154811061020c57600080fd5b906000526020600020906004020160009150905080600001805461022f90611059565b80601f016020809104026020016040519081016040528092919081815260200182805461025b90611059565b80156102a85780601f1061027d576101008083540402835291602001916102a8565b820191906000526020600020905b81548152906001019060200180831161028b57829003601f168201915b505050600190930154919250506001600160a01b031682565b6060600060608060008054905085106103215760405162461bcd60e51b815260206004820152601860248201527f576f726b737061636520646f6573206e6f74206578697374000000000000000060448201526064015b60405180910390fd5b60008086815481106103355761033561108d565b90600052602060002090600402019050806000018160010160009054906101000a90046001600160a01b0316826002018360030183805461037590611059565b80601f01602080910402602001604051908101604052809291908181526020018280546103a190611059565b80156103ee5780601f106103c3576101008083540402835291602001916103ee565b820191906000526020600020905b8154815290600101906020018083116103d157829003601f168201915b505050505093508180548060200260200160405190810160405280929190818152602001828054801561044a57602002820191906000526020600020905b81546001600160a01b0316815260019091019060200180831161042c575b5050505050915080805480602002602001604051908101604052809291908181526020016000905b8282101561051e57838290600052602060002001805461049190611059565b80601f01602080910402602001604051908101604052809291908181526020018280546104bd90611059565b801561050a5780601f106104df5761010080835404028352916020019161050a565b820191906000526020600020905b8154815290600101906020018083116104ed57829003601f168201915b505050505081526020019060010190610472565b5050505090509450945094509450509193509193565b6060600060035467ffffffffffffffff81111561055357610553610ede565b60405190808252806020026020018201604052801561057c578160200160208202803683370190505b50905060005b6003548110156105b2578082828151811061059f5761059f61108d565b6020908102919091010152600101610582565b50919050565b60005482106106095760405162461bcd60e51b815260206004820152601860248201527f576f726b737061636520646f6573206e6f7420657869737400000000000000006044820152606401610318565b6000828154811061061c5761061c61108d565b60009182526020909120600490910201600101546001600160a01b031633146106ad5760405162461bcd60e51b815260206004820152602160248201527f4f6e6c792063726561746f722063616e20616464207061727469636970616e7460448201527f73000000000000000000000000000000000000000000000000000000000000006064820152608401610318565b600082815481106106c0576106c061108d565b60009182526020808320600492909202909101600290810180546001808201835591855283852001805473ffffffffffffffffffffffffffffffffffffffff19166001600160a01b038716908117909155808552918352604080852080549283018155855293839020018590558251858152918201527f12246ba2398106df92bc0281a1eece14e5b8516c5c3dab76205391650e39fddb91015b60405180910390a15050565b60005482106107b75760405162461bcd60e51b815260206004820152601860248201527f576f726b737061636520646f6573206e6f7420657869737400000000000000006044820152606401610318565b600082815481106107ca576107ca61108d565b60009182526020909120600490910201600101546001600160a01b031633146108355760405162461bcd60e51b815260206004820152601b60248201527f4f6e6c792063726561746f722063616e2061646420766964656f7300000000006044820152606401610318565b600082815481106108485761084861108d565b60009182526020808320600360049093020191909101805460018101825590835291200161087682826110f4565b507f9778aed84dd1eb99c14d99b075b40f66d9fa67975df07b3eafd9d49a1f2d0757828260405161075a9291906111b4565b6001600160a01b03811660009081526002602090815260409182902080548351818402810184019094528084526060939283018282801561090857602002820191906000526020600020905b8154815260200190600101908083116108f4575b50505050509050919050565b600354604080516080810182528481523360208083019190915282516000808252818301855283850191909152835181815291820190935260608201908361096c565b60608152602001906001900390816109575790505b509052815460018101835560009283526020909220815191926004020190819061099690826110f4565b5060208281015160018301805473ffffffffffffffffffffffffffffffffffffffff19166001600160a01b03909216919091179055604083015180516109e29260028501920190610bd4565b50606082015180516109fe916003840191602090910190610c46565b50505060008181548110610a1457610a1461108d565b60009182526020808320600260049093020182018054600181810183559185528285200180546001600160a01b03881673ffffffffffffffffffffffffffffffffffffffff199182168117909255908552928252604080852080548084018255908652838620018690553380865282845290852080549094161783559182018054928301815583528220018290556003805491610ab0836111d5565b91905055507ff31b3a159c9fe995f2a7a1728a7632c5e61cff3b4bc9733e40f23d3def3d8fb2818433604051610ae8939291906111fc565b60405180910390a1604080518281526001600160a01b03841660208201527f12246ba2398106df92bc0281a1eece14e5b8516c5c3dab76205391650e39fddb910160405180910390a1505050565b6001600160a01b03811660009081526001602081815260409283902090910180548351818402810184019094528084526060939283018282801561090857602002820191906000526020600020908154815260200190600101908083116108f45750505050509050919050565b60026020528160005260406000208181548110610bbf57600080fd5b90600052602060002001600091509150505481565b828054828255906000526020600020908101928215610c36579160200282015b82811115610c36578251825473ffffffffffffffffffffffffffffffffffffffff19166001600160a01b03909116178255602090920191600190910190610bf4565b50610c42929150610c98565b5090565b828054828255906000526020600020908101928215610c8c579160200282015b82811115610c8c5782518290610c7c90826110f4565b5091602001919060010190610c66565b50610c42929150610cad565b5b80821115610c425760008155600101610c99565b80821115610c42576000610cc18282610cca565b50600101610cad565b508054610cd690611059565b6000825580601f10610ce6575050565b601f016020900490600052602060002090810190610d049190610c98565b50565b600060208284031215610d1957600080fd5b5035919050565b6000815180845260005b81811015610d4657602081850181015186830182015201610d2a565b506000602082860101526020601f19601f83011685010191505092915050565b604081526000610d796040830185610d20565b90506001600160a01b03831660208301529392505050565b608081526000610da46080830187610d20565b60206001600160a01b038088168286015284830360408601528287518085528385019150838901945060005b81811015610dee578551841683529484019491840191600101610dd0565b50508581036060870152865180825283820194509150600582901b8101830183880160005b84811015610e4157601f19848403018752610e2f838351610d20565b96860196925090850190600101610e13565b50909b9a5050505050505050505050565b6020808252825182820181905260009190848201906040850190845b81811015610e8a57835183529284019291840191600101610e6e565b50909695505050505050565b80356001600160a01b0381168114610ead57600080fd5b919050565b60008060408385031215610ec557600080fd5b82359150610ed560208401610e96565b90509250929050565b634e487b7160e01b600052604160045260246000fd5b600082601f830112610f0557600080fd5b813567ffffffffffffffff80821115610f2057610f20610ede565b604051601f8301601f19908116603f01168101908282118183101715610f4857610f48610ede565b81604052838152866020858801011115610f6157600080fd5b836020870160208301376000602085830101528094505050505092915050565b60008060408385031215610f9457600080fd5b82359150602083013567ffffffffffffffff811115610fb257600080fd5b610fbe85828601610ef4565b9150509250929050565b600060208284031215610fda57600080fd5b610fe382610e96565b9392505050565b60008060408385031215610ffd57600080fd5b823567ffffffffffffffff81111561101457600080fd5b61102085828601610ef4565b925050610ed560208401610e96565b6000806040838503121561104257600080fd5b61104b83610e96565b946020939093013593505050565b600181811c9082168061106d57607f821691505b6020821081036105b257634e487b7160e01b600052602260045260246000fd5b634e487b7160e01b600052603260045260246000fd5b601f8211156110ef576000816000526020600020601f850160051c810160208610156110cc5750805b601f850160051c820191505b818110156110eb578281556001016110d8565b5050505b505050565b815167ffffffffffffffff81111561110e5761110e610ede565b6111228161111c8454611059565b846110a3565b602080601f831160018114611157576000841561113f5750858301515b600019600386901b1c1916600185901b1785556110eb565b600085815260208120601f198616915b8281101561118657888601518255948401946001909101908401611167565b50858210156111a45787850151600019600388901b60f8161c191681555b5050505050600190811b01905550565b8281526040602082015260006111cd6040830184610d20565b949350505050565b6000600182016111f557634e487b7160e01b600052601160045260246000fd5b5060010190565b8381526060602082015260006112156060830185610d20565b90506001600160a01b038316604083015294935050505056fea2646970667358221220395353ce9fc28f4cee211f149a9ac5d183348bac6ed09746af28d5354c69040964736f6c63430008180033",
  "linkReferences": {},
  "deployedLinkReferences": {}
}